{
  "_format": "hh-sol-artifact-1",
  "contractName": "Gateway",
  "sourceName": "contracts/Gateway.sol",
  "abi": [
    {
      "inputs": [],
      "stateMutability": "nonpayable",
      "type": "constructor"
    },
    {
      "inputs": [],
      "name": "InvalidBytesLength",
      "type": "error"
    },
    {
      "inputs": [],
      "name": "InvalidInitialization",
      "type": "error"
    },
    {
      "inputs": [],
      "name": "InvalidPacketSignature",
      "type": "error"
    },
    {
      "inputs": [],
      "name": "InvalidPayloadHash",
      "type": "error"
    },
    {
      "inputs": [],
      "name": "InvalidSignature",
      "type": "error"
    },
    {
      "inputs": [],
      "name": "InvalidSignatureLength",
      "type": "error"
    },
    {
      "inputs": [],
      "name": "NotInitializing",
      "type": "error"
    },
    {
      "inputs": [
        {
          "internalType": "address",
          "name": "owner",
          "type": "address"
        }
      ],
      "name": "OwnableInvalidOwner",
      "type": "error"
    },
    {
      "inputs": [
        {
          "internalType": "address",
          "name": "account",
          "type": "address"
        }
      ],
      "name": "OwnableUnauthorizedAccount",
      "type": "error"
    },
    {
      "inputs": [],
      "name": "PaidRequestFeeTooLow",
      "type": "error"
    },
    {
      "inputs": [],
      "name": "TaskAlreadyCompleted",
      "type": "error"
    },
    {
      "inputs": [],
      "name": "TooManyVRFRandomWordsRequested",
      "type": "error"
    },
    {
      "anonymous": false,
      "inputs": [
        {
          "indexed": false,
          "internalType": "uint64",
          "name": "version",
          "type": "uint64"
        }
      ],
      "name": "Initialized",
      "type": "event"
    },
    {
      "anonymous": false,
      "inputs": [
        {
          "indexed": true,
          "internalType": "address",
          "name": "previousOwner",
          "type": "address"
        },
        {
          "indexed": true,
          "internalType": "address",
          "name": "newOwner",
          "type": "address"
        }
      ],
      "name": "OwnershipTransferred",
      "type": "event"
    },
    {
      "anonymous": false,
      "inputs": [
        {
          "indexed": false,
          "internalType": "uint256",
          "name": "taskId",
          "type": "uint256"
        },
        {
          "indexed": false,
          "internalType": "bool",
          "name": "callbackSuccessful",
          "type": "bool"
        }
      ],
      "name": "TaskCompleted",
      "type": "event"
    },
    {
      "anonymous": false,
      "inputs": [
        {
          "indexed": true,
          "internalType": "uint256",
          "name": "task_id",
          "type": "uint256"
        },
        {
          "indexed": false,
          "internalType": "string",
          "name": "source_network",
          "type": "string"
        },
        {
          "indexed": false,
          "internalType": "address",
          "name": "user_address",
          "type": "address"
        },
        {
          "indexed": false,
          "internalType": "string",
          "name": "routing_info",
          "type": "string"
        },
        {
          "indexed": false,
          "internalType": "bytes32",
          "name": "payload_hash",
          "type": "bytes32"
        },
        {
          "components": [
            {
              "internalType": "bytes",
              "name": "user_key",
              "type": "bytes"
            },
            {
              "internalType": "bytes",
              "name": "user_pubkey",
              "type": "bytes"
            },
            {
              "internalType": "string",
              "name": "routing_code_hash",
              "type": "string"
            },
            {
              "internalType": "string",
              "name": "task_destination_network",
              "type": "string"
            },
            {
              "internalType": "string",
              "name": "handle",
              "type": "string"
            },
            {
              "internalType": "bytes12",
              "name": "nonce",
              "type": "bytes12"
            },
            {
              "internalType": "uint32",
              "name": "callback_gas_limit",
              "type": "uint32"
            },
            {
              "internalType": "bytes",
              "name": "payload",
              "type": "bytes"
            },
            {
              "internalType": "bytes",
              "name": "payload_signature",
              "type": "bytes"
            }
          ],
          "indexed": false,
          "internalType": "struct Gateway.ExecutionInfo",
          "name": "info",
          "type": "tuple"
        }
      ],
      "name": "logNewTask",
      "type": "event"
    },
    {
      "inputs": [
        {
          "internalType": "uint256",
          "name": "_newTaskId",
          "type": "uint256"
        }
      ],
      "name": "increaseTaskId",
      "outputs": [],
      "stateMutability": "nonpayable",
      "type": "function"
    },
    {
      "inputs": [],
      "name": "initialize",
      "outputs": [],
      "stateMutability": "nonpayable",
      "type": "function"
    },
    {
      "inputs": [],
      "name": "owner",
      "outputs": [
        {
          "internalType": "address",
          "name": "",
          "type": "address"
        }
      ],
      "stateMutability": "view",
      "type": "function"
    },
    {
      "inputs": [],
      "name": "payoutBalance",
      "outputs": [],
      "stateMutability": "nonpayable",
      "type": "function"
    },
    {
      "inputs": [
        {
          "internalType": "uint256",
          "name": "_taskId",
          "type": "uint256"
        },
        {
          "internalType": "string",
          "name": "_sourceNetwork",
          "type": "string"
        },
        {
          "components": [
            {
              "internalType": "bytes32",
              "name": "payload_hash",
              "type": "bytes32"
            },
            {
              "internalType": "bytes32",
              "name": "packet_hash",
              "type": "bytes32"
            },
            {
              "internalType": "bytes20",
              "name": "callback_address",
              "type": "bytes20"
            },
            {
              "internalType": "bytes4",
              "name": "callback_selector",
              "type": "bytes4"
            },
            {
              "internalType": "bytes4",
              "name": "callback_gas_limit",
              "type": "bytes4"
            },
            {
              "internalType": "bytes",
              "name": "packet_signature",
              "type": "bytes"
            },
            {
              "internalType": "bytes",
              "name": "result",
              "type": "bytes"
            }
          ],
          "internalType": "struct Gateway.PostExecutionInfo",
          "name": "_info",
          "type": "tuple"
        }
      ],
      "name": "postExecution",
      "outputs": [],
      "stateMutability": "nonpayable",
      "type": "function"
    },
    {
      "inputs": [],
      "name": "renounceOwnership",
      "outputs": [],
      "stateMutability": "nonpayable",
      "type": "function"
    },
    {
      "inputs": [
        {
          "internalType": "uint32",
          "name": "_numWords",
          "type": "uint32"
        },
        {
          "internalType": "uint32",
          "name": "_callbackGasLimit",
          "type": "uint32"
        }
      ],
      "name": "requestRandomness",
      "outputs": [
        {
          "internalType": "uint256",
          "name": "requestId",
          "type": "uint256"
        }
      ],
      "stateMutability": "payable",
      "type": "function"
    },
    {
      "inputs": [
        {
          "internalType": "bytes32",
          "name": "_payloadHash",
          "type": "bytes32"
        },
        {
          "internalType": "address",
          "name": "_userAddress",
          "type": "address"
        },
        {
          "internalType": "string",
          "name": "_routingInfo",
          "type": "string"
        },
        {
          "components": [
            {
              "internalType": "bytes",
              "name": "user_key",
              "type": "bytes"
            },
            {
              "internalType": "bytes",
              "name": "user_pubkey",
              "type": "bytes"
            },
            {
              "internalType": "string",
              "name": "routing_code_hash",
              "type": "string"
            },
            {
              "internalType": "string",
              "name": "task_destination_network",
              "type": "string"
            },
            {
              "internalType": "string",
              "name": "handle",
              "type": "string"
            },
            {
              "internalType": "bytes12",
              "name": "nonce",
              "type": "bytes12"
            },
            {
              "internalType": "uint32",
              "name": "callback_gas_limit",
              "type": "uint32"
            },
            {
              "internalType": "bytes",
              "name": "payload",
              "type": "bytes"
            },
            {
              "internalType": "bytes",
              "name": "payload_signature",
              "type": "bytes"
            }
          ],
          "internalType": "struct Gateway.ExecutionInfo",
          "name": "_info",
          "type": "tuple"
        }
      ],
      "name": "send",
      "outputs": [],
      "stateMutability": "payable",
      "type": "function"
    },
    {
      "inputs": [],
      "name": "taskId",
      "outputs": [
        {
          "internalType": "uint256",
          "name": "",
          "type": "uint256"
        }
      ],
      "stateMutability": "view",
      "type": "function"
    },
    {
      "inputs": [
        {
          "internalType": "uint256",
          "name": "",
          "type": "uint256"
        }
      ],
      "name": "tasks",
      "outputs": [
        {
          "internalType": "bytes31",
          "name": "payload_hash_reduced",
          "type": "bytes31"
        },
        {
          "internalType": "bool",
          "name": "completed",
          "type": "bool"
        }
      ],
      "stateMutability": "view",
      "type": "function"
    },
    {
      "inputs": [
        {
          "internalType": "address",
          "name": "newOwner",
          "type": "address"
        }
      ],
      "name": "transferOwnership",
      "outputs": [],
      "stateMutability": "nonpayable",
      "type": "function"
    },
    {
      "inputs": [],
      "name": "upgradeHandler",
      "outputs": [],
      "stateMutability": "nonpayable",
      "type": "function"
    }
  ],
  "bytecode": "0x608060405234801561001057600080fd5b5061001961001e565b6100d0565b7ff0c57e16840df040f15088dc2f81fe391c3923bec73e23a9662efc9c229c6a00805468010000000000000000900460ff161561006e5760405163f92ee8a960e01b815260040160405180910390fd5b80546001600160401b03908116146100cd5780546001600160401b0319166001600160401b0390811782556040519081527fc7f505b2f371ae2175ee4913f4499e1f2633a7b5936321eed1cdaeb6115181d29060200160405180910390a15b50565b611ca3806100df6000396000f3fe6080604052600436106100a75760003560e01c80638d977672116100645780638d977672146101355780638da5cb5b1461018c578063b910e9ba146101b9578063c5f3f16e146101d9578063e58929ac146101f9578063f2fde38b1461020c57600080fd5b806320b0554e146100ac5780633322b23d146100c3578063373d450c146100ec57806361bf6193146100f8578063715018a61461010b5780638129fc1c14610120575b600080fd5b3480156100b857600080fd5b506100c161022c565b005b3480156100cf57600080fd5b506100d960005481565b6040519081526020015b60405180910390f35b3480156100c157600080fd5b6100d96101063660046111d5565b610279565b34801561011757600080fd5b506100c16105d9565b34801561012c57600080fd5b506100c16105eb565b34801561014157600080fd5b50610172610150366004611208565b600160205260009081526040902054600881901b90600160f81b900460ff1682565b6040805160ff1990931683529015156020830152016100e3565b34801561019857600080fd5b506101a16106ff565b6040516001600160a01b0390911681526020016100e3565b3480156101c557600080fd5b506100c16101d436600461126a565b61072d565b3480156101e557600080fd5b506100c16101f4366004611208565b610b5d565b6100c16102073660046112f9565b610bd8565b34801561021857600080fd5b506100c1610227366004611385565b610d8b565b610234610dc6565b61023c6106ff565b6001600160a01b03166108fc479081150290604051600060405180830381858888f19350505050158015610274573d6000803e3d6000fd5b50565b565b60006107d08363ffffffff1611156102a45760405163b8a1e6c760e01b815260040160405180910390fd5b346102ae83610df8565b11156102cd5760405163185d25df60e21b815260040160405180910390fd5b6040516001600160601b03193360601b16602082015260009061030190603401604051602081830303815290604052610e12565b905060006103148563ffffffff16610f65565b6040518060600160405280602d8152602001611c01602d9139604051806060016040528060408152602001611bc160409139846103568863ffffffff16610f65565b60405160200161036a9594939291906113e0565b6040516020818303038152906040529050600081805190602001206040516020016103c191907f19457468657265756d205369676e6564204d6573736167653a0a3332000000008152601c810191909152603c0190565b60408051808303601f1901815282825280516020909101206021610120840181815261018085019093529093506000929182916020820181803683370190505081526040805181815260608101825260209092019190602082018180368337019050508152602001604051806060016040528060408152602001611bc1604091398152602001604051806040016040528060088152602001671cd958dc995d0b4d60c21b81525081526020016040518060400160405280600e81526020016d726571756573745f72616e646f6d60901b8152508152602001600060a01b6001600160a01b03191681526020018763ffffffff168152602001848152602001604067ffffffffffffffff8111156104d9576104d96115ca565b6040519080825280601f01601f191660200182016040528015610503576020820181803683370190505b508152509050604051806040016040528061051e8460081c90565b60ff1916815260006020918201819052805481526001825260408120835193909201511515600160f81b0260089390931c929092179055547fcbe4f092e5306d17b59541c5717bc1ec67f296e16d46150a0103ec02af816e2e61058046610f65565b326040518060600160405280602d8152602001611c01602d913986866040516105ad95949392919061160c565b60405180910390a260008054908190806105c68361175a565b9091555090955050505050505b92915050565b6105e1610dc6565b6102776000610fb4565b7ff0c57e16840df040f15088dc2f81fe391c3923bec73e23a9662efc9c229c6a008054600160401b810460ff16159067ffffffffffffffff166000811580156106315750825b905060008267ffffffffffffffff16600114801561064e5750303b155b90508115801561065c575080155b1561067a5760405163f92ee8a960e01b815260040160405180910390fd5b845467ffffffffffffffff1916600117855583156106a457845460ff60401b1916600160401b1785555b6106ad33611025565b600160005583156106f857845460ff60401b19168555604051600181527fc7f505b2f371ae2175ee4913f4499e1f2633a7b5936321eed1cdaeb6115181d29060200160405180910390a15b5050505050565b7f9016d09d72d40fdae2fd8ceac6b6234c7706214fd39c1cd1e609a0528c199300546001600160a01b031690565b60008481526001602090815260409182902082518084019093525460ff19600882901b168352600160f81b900460ff161580159183019190915261078457604051637fba946d60e01b815260040160405180910390fd5b805160ff1916823560081c60ff1916146107b15760405163a84ab60d60e01b815260040160405180910390fd5b600084846107be46610f65565b6107c789610f65565b86356107d660c0890189611773565b6107e660608b0160408c016117ba565b6107f660808c0160608d016117e4565b60405160200161080e9998979695949392919061180e565b604051602081830303815290604052905060006002828051906020012060405160200161083d91815260200190565b60408051601f198184030181529082905261085791611880565b602060405180830381855afa158015610874573d6000803e3d6000fd5b5050506040513d601f19601f82011682018060405250810190610897919061189c565b90508360200135811415806108de57507388e43f4016f8282ea6235ac069d02ba1ce5417ab6108d2826108cd60a0880188611773565b611036565b6001600160a01b031614155b156108fc57604051635a4e66c560e11b815260040160405180910390fd5b600087815260016020526040812080546001600160f81b0316600160f81b17905561092d60808601606087016117e4565b6001600160e01b031916630e2e918560e21b03610a4d57600061099061095660c0880188611773565b8080601f0160208091040260200160405190810160405280939291908181526020018383808284376000920191909152506110ec92505050565b90506109a260608701604088016117ba565b60601c6001600160a01b03166338ba46148a836040516024016109c69291906118b5565b6040516020818303038152906040529060e01b6020820180516001600160e01b0383818316178352505050506040516109ff9190611880565b6000604051808303816000865af19150503d8060008114610a3c576040519150601f19603f3d011682016040523d82523d6000602084013e610a41565b606091505b50508092505050610b19565b610a5d60608601604087016117ba565b606090811c90610a7390608088019088016117e4565b89610a8160c0890189611773565b604051602401610a939392919061192e565b60408051601f198184030181529181526020820180516001600160e01b03166001600160e01b0319909416939093179092529051610ad19190611880565b6000604051808303816000865af19150503d8060008114610b0e576040519150601f19603f3d011682016040523d82523d6000602084013e610b13565b606091505b50909150505b6040805189815282151560208201527fe21fa966ca5cd02748c0752352d18c48165e61cb55b4c29cccf924b5a95fcff1910160405180910390a15050505050505050565b610b65610dc6565b6000548111610bd35760405162461bcd60e51b815260206004820152602f60248201527f4e6577207461736b206964206d75737420626520686967686572207468616e2060448201526e1d1a19481bdb19081d185cdad7da59608a1b60648201526084015b60405180910390fd5b600055565b34610bf1610bec60e0840160c08501611951565b610df8565b1115610c105760405163185d25df60e21b815260040160405180910390fd5b84610c1e60e0830183611773565b604051610c2c92919061196c565b6040519081900381207f19457468657265756d205369676e6564204d6573736167653a0a3332000000006020830152603c820152605c016040516020818303038152906040528051906020012014610c975760405163a84ab60d60e01b815260040160405180910390fd5b6001600160a01b038416610cb3866108cd610100850185611773565b6001600160a01b031614610cda57604051638baa579f60e01b815260040160405180910390fd5b6040518060400160405280610cef8760081c90565b60ff1916815260006020918201819052805481526001825260408120835193909201511515600160f81b0260089390931c929092179055547fcbe4f092e5306d17b59541c5717bc1ec67f296e16d46150a0103ec02af816e2e610d5146610f65565b8686868a87604051610d68969594939291906119da565b60405180910390a2600080549080610d7f8361175a565b91905055505050505050565b610d93610dc6565b6001600160a01b038116610dbd57604051631e4fbdf760e01b815260006004820152602401610bca565b61027481610fb4565b33610dcf6106ff565b6001600160a01b0316146102775760405163118cdaa760e01b8152336004820152602401610bca565b600080610e0b4863ffffffff8516611b58565b9392505050565b60608151600003610e3157505060408051602081019091526000815290565b6000604051806060016040528060408152602001611c2e6040913990506000600384516002610e609190611b6f565b610e6a9190611b98565b610e75906004611b58565b67ffffffffffffffff811115610e8d57610e8d6115ca565b6040519080825280601f01601f191660200182016040528015610eb7576020820181803683370190505b509050600182016020820185865187015b80821015610f23576003820191508151603f8160121c168501518453600184019350603f81600c1c168501518453600184019350603f8160061c168501518453600184019350603f8116850151845350600183019250610ec8565b5050600386510660018114610f3f5760028114610f5257610f5a565b603d6001830353603d6002830353610f5a565b603d60018303535b509195945050505050565b604080516080810191829052607f0190826030600a8206018353600a90045b8015610fa257600183039250600a81066030018353600a9004610f84565b50819003601f19909101908152919050565b7f9016d09d72d40fdae2fd8ceac6b6234c7706214fd39c1cd1e609a0528c19930080546001600160a01b031981166001600160a01b03848116918217845560405192169182907f8be0079c531659141344cd1fd0a4f28419497f9722a3daafe3b4186f6b6457e090600090a3505050565b61102d611126565b6102748161116f565b60008060008061107b86868080601f01602080910402602001604051908101604052809392919081815260200183838082843760009201919091525061117792505050565b6040805160008152602081018083528c905260ff8316918101919091526060810184905260808101839052929550909350915060019060a0016020604051602081039080840390855afa1580156110d6573d6000803e3d6000fd5b5050604051601f19015198975050505050505050565b6060602082516110fc9190611bac565b1561111a576040516366a896c160e11b815260040160405180910390fd5b50805160209004815290565b7ff0c57e16840df040f15088dc2f81fe391c3923bec73e23a9662efc9c229c6a0054600160401b900460ff1661027757604051631afcd79f60e31b815260040160405180910390fd5b610d93611126565b6000806000835160411461119e57604051634be6321b60e01b815260040160405180910390fd5b50505060208101516040820151606090920151909260009190911a90565b803563ffffffff811681146111d057600080fd5b919050565b600080604083850312156111e857600080fd5b6111f1836111bc565b91506111ff602084016111bc565b90509250929050565b60006020828403121561121a57600080fd5b5035919050565b60008083601f84011261123357600080fd5b50813567ffffffffffffffff81111561124b57600080fd5b60208301915083602082850101111561126357600080fd5b9250929050565b6000806000806060858703121561128057600080fd5b84359350602085013567ffffffffffffffff8082111561129f57600080fd5b6112ab88838901611221565b909550935060408701359150808211156112c457600080fd5b50850160e081880312156112d757600080fd5b939692955090935050565b80356001600160a01b03811681146111d057600080fd5b60008060008060006080868803121561131157600080fd5b85359450611321602087016112e2565b9350604086013567ffffffffffffffff8082111561133e57600080fd5b61134a89838a01611221565b9095509350606088013591508082111561136357600080fd5b508601610120818903121561137757600080fd5b809150509295509295909350565b60006020828403121561139757600080fd5b610e0b826112e2565b60005b838110156113bb5781810151838201526020016113a3565b50506000910152565b600081516113d68185602086016113a0565b9290920192915050565b7f7b2264617461223a227b5c226e756d576f7264735c223a000000000000000000815260008651611418816017850160208b016113a0565b733e9116113937baba34b733afb4b73337911d101160611b601791840191820152865161144c81602b840160208b016113a0565b7f222c22726f7574696e675f636f64655f68617368223a20220000000000000000602b9290910191820152855161148a816043840160208a016113a0565b7f222c22757365725f61646472657373223a202230783030303030303030303030910160438101919091527f3030303030303030303030303030303030303030303030303030303030222c2260638201527f757365725f6b6579223a2022414141414141414141414141414141414141414160838201527f414141414141414141414141414141414141414141414141222c00000000000060a3820152741131b0b6363130b1b5afb0b2323932b9b9911d101160591b60bd82015261158961155560d28301876113c4565b7f222c2263616c6c6261636b5f73656c6563746f72223a20224f4c704746413d3d815261088b60f21b602082015260220190565b7501131b0b6363130b1b5afb3b0b9afb634b6b4ba111d160551b815290506115b460168201856113c4565b607d60f81b815260010198975050505050505050565b634e487b7160e01b600052604160045260246000fd5b600081518084526115f88160208601602086016113a0565b601f01601f19169290920160200192915050565b60a08152600061161f60a08301886115e0565b6001600160a01b0387166020840152828103604084015261164081876115e0565b905084606084015282810360808401526101208451818352611664828401826115e0565b9150506020850151828203602084015261167e82826115e0565b9150506040850151828203604084015261169882826115e0565b915050606085015182820360608401526116b282826115e0565b915050608085015182820360808401526116cc82826115e0565b91505060a08501516116ea60a08401826001600160a01b0319169052565b5060c085015161170260c084018263ffffffff169052565b5060e085015182820360e084015261171a82826115e0565b915050610100808601518383038285015261173583826115e0565b9b9a5050505050505050505050565b634e487b7160e01b600052601160045260246000fd5b60006001820161176c5761176c611744565b5060010190565b6000808335601e1984360301811261178a57600080fd5b83018035915067ffffffffffffffff8211156117a557600080fd5b60200191503681900382131561126357600080fd5b6000602082840312156117cc57600080fd5b81356001600160601b031981168114610e0b57600080fd5b6000602082840312156117f657600080fd5b81356001600160e01b031981168114610e0b57600080fd5b888a8237600089820160008152895161182b818360208e016113a0565b895191019061183e818360208d016113a0565b01878152858760208301376001600160601b031994909416949093016020810194909452506001600160e01b0319166034830152506038019695505050505050565b600082516118928184602087016113a0565b9190910192915050565b6000602082840312156118ae57600080fd5b5051919050565b60006040820184835260206040602085015281855180845260608601915060208701935060005b818110156118f8578451835293830193918301916001016118dc565b5090979650505050505050565b81835281816020850137506000828201602090810191909152601f909101601f19169091010190565b838152604060208201526000611948604083018486611905565b95945050505050565b60006020828403121561196357600080fd5b610e0b826111bc565b8183823760009101908152919050565b6000808335601e1984360301811261199357600080fd5b830160208101925035905067ffffffffffffffff8111156119b357600080fd5b80360382131561126357600080fd5b80356001600160a01b0319811681146111d057600080fd5b60a0815260006119ed60a08301896115e0565b6001600160a01b03881660208401528281036040840152611a0f818789611905565b90508460608401528281036080840152610120611a2c858661197c565b828452611a3c8385018284611905565b92505050611a4d602086018661197c565b8383036020850152611a60838284611905565b92505050611a71604086018661197c565b8383036040850152611a84838284611905565b92505050611a95606086018661197c565b8383036060850152611aa8838284611905565b92505050611ab9608086018661197c565b8383036080850152611acc838284611905565b92505050611adc60a086016119c2565b6001600160a01b03191660a0830152611af760c086016111bc565b63ffffffff1660c0830152611b0f60e086018661197c565b83830360e0850152611b22838284611905565b92505050610100611b358187018761197c565b84840383860152611b47848284611905565b9d9c50505050505050505050505050565b80820281158282048414176105d3576105d3611744565b808201808211156105d3576105d3611744565b634e487b7160e01b600052601260045260246000fd5b600082611ba757611ba7611b82565b500490565b600082611bbb57611bbb611b82565b50069056fe34396666656430646634353136323261633138363537313033383063313464346166393864636132643332333432626232306632623232666163613364303064736563726574313670636a616c667579373272346b323672346b6e35663578363472757a7633306b6e666c77784142434445464748494a4b4c4d4e4f505152535455565758595a6162636465666768696a6b6c6d6e6f707172737475767778797a303132333435363738392b2fa264697066735822122073bfb813e57f8b2da8644b33b4de204911b01507339b0af56f2e9408e1df7ed164736f6c63430008170033",
  "linkReferences": {},
  "deployedLinkReferences": {}
}