{
  "_format": "hh-sol-artifact-1",
  "contractName": "SecretNFT",
  "sourceName": "contracts/SecretNFT.sol",
  "abi": [
    {
      "inputs": [
        {
          "internalType": "address",
          "name": "initialOwner",
          "type": "address"
        }
      ],
      "stateMutability": "nonpayable",
      "type": "constructor"
    },
    {
      "inputs": [
        {
          "internalType": "address",
          "name": "sender",
          "type": "address"
        },
        {
          "internalType": "uint256",
          "name": "tokenId",
          "type": "uint256"
        },
        {
          "internalType": "address",
          "name": "owner",
          "type": "address"
        }
      ],
      "name": "ERC721IncorrectOwner",
      "type": "error"
    },
    {
      "inputs": [
        {
          "internalType": "address",
          "name": "operator",
          "type": "address"
        },
        {
          "internalType": "uint256",
          "name": "tokenId",
          "type": "uint256"
        }
      ],
      "name": "ERC721InsufficientApproval",
      "type": "error"
    },
    {
      "inputs": [
        {
          "internalType": "address",
          "name": "approver",
          "type": "address"
        }
      ],
      "name": "ERC721InvalidApprover",
      "type": "error"
    },
    {
      "inputs": [
        {
          "internalType": "address",
          "name": "operator",
          "type": "address"
        }
      ],
      "name": "ERC721InvalidOperator",
      "type": "error"
    },
    {
      "inputs": [
        {
          "internalType": "address",
          "name": "owner",
          "type": "address"
        }
      ],
      "name": "ERC721InvalidOwner",
      "type": "error"
    },
    {
      "inputs": [
        {
          "internalType": "address",
          "name": "receiver",
          "type": "address"
        }
      ],
      "name": "ERC721InvalidReceiver",
      "type": "error"
    },
    {
      "inputs": [
        {
          "internalType": "address",
          "name": "sender",
          "type": "address"
        }
      ],
      "name": "ERC721InvalidSender",
      "type": "error"
    },
    {
      "inputs": [
        {
          "internalType": "uint256",
          "name": "tokenId",
          "type": "uint256"
        }
      ],
      "name": "ERC721NonexistentToken",
      "type": "error"
    },
    {
      "inputs": [
        {
          "internalType": "address",
          "name": "owner",
          "type": "address"
        }
      ],
      "name": "OwnableInvalidOwner",
      "type": "error"
    },
    {
      "inputs": [
        {
          "internalType": "address",
          "name": "account",
          "type": "address"
        }
      ],
      "name": "OwnableUnauthorizedAccount",
      "type": "error"
    },
    {
      "anonymous": false,
      "inputs": [
        {
          "indexed": true,
          "internalType": "address",
          "name": "owner",
          "type": "address"
        },
        {
          "indexed": true,
          "internalType": "address",
          "name": "approved",
          "type": "address"
        },
        {
          "indexed": true,
          "internalType": "uint256",
          "name": "tokenId",
          "type": "uint256"
        }
      ],
      "name": "Approval",
      "type": "event"
    },
    {
      "anonymous": false,
      "inputs": [
        {
          "indexed": true,
          "internalType": "address",
          "name": "owner",
          "type": "address"
        },
        {
          "indexed": true,
          "internalType": "address",
          "name": "operator",
          "type": "address"
        },
        {
          "indexed": false,
          "internalType": "bool",
          "name": "approved",
          "type": "bool"
        }
      ],
      "name": "ApprovalForAll",
      "type": "event"
    },
    {
      "anonymous": false,
      "inputs": [
        {
          "indexed": false,
          "internalType": "uint256",
          "name": "_fromTokenId",
          "type": "uint256"
        },
        {
          "indexed": false,
          "internalType": "uint256",
          "name": "_toTokenId",
          "type": "uint256"
        }
      ],
      "name": "BatchMetadataUpdate",
      "type": "event"
    },
    {
      "anonymous": false,
      "inputs": [
        {
          "indexed": false,
          "internalType": "uint256",
          "name": "_tokenId",
          "type": "uint256"
        }
      ],
      "name": "MetadataUpdate",
      "type": "event"
    },
    {
      "anonymous": false,
      "inputs": [
        {
          "indexed": true,
          "internalType": "address",
          "name": "previousOwner",
          "type": "address"
        },
        {
          "indexed": true,
          "internalType": "address",
          "name": "newOwner",
          "type": "address"
        }
      ],
      "name": "OwnershipTransferred",
      "type": "event"
    },
    {
      "anonymous": false,
      "inputs": [
        {
          "indexed": true,
          "internalType": "address",
          "name": "from",
          "type": "address"
        },
        {
          "indexed": true,
          "internalType": "address",
          "name": "to",
          "type": "address"
        },
        {
          "indexed": true,
          "internalType": "uint256",
          "name": "tokenId",
          "type": "uint256"
        }
      ],
      "name": "Transfer",
      "type": "event"
    },
    {
      "inputs": [
        {
          "internalType": "address",
          "name": "to",
          "type": "address"
        },
        {
          "internalType": "uint256",
          "name": "tokenId",
          "type": "uint256"
        }
      ],
      "name": "approve",
      "outputs": [],
      "stateMutability": "nonpayable",
      "type": "function"
    },
    {
      "inputs": [
        {
          "internalType": "address",
          "name": "owner",
          "type": "address"
        }
      ],
      "name": "balanceOf",
      "outputs": [
        {
          "internalType": "uint256",
          "name": "",
          "type": "uint256"
        }
      ],
      "stateMutability": "view",
      "type": "function"
    },
    {
      "inputs": [
        {
          "internalType": "uint256",
          "name": "tokenId",
          "type": "uint256"
        }
      ],
      "name": "getApproved",
      "outputs": [
        {
          "internalType": "address",
          "name": "",
          "type": "address"
        }
      ],
      "stateMutability": "view",
      "type": "function"
    },
    {
      "inputs": [
        {
          "internalType": "address",
          "name": "owner",
          "type": "address"
        },
        {
          "internalType": "address",
          "name": "operator",
          "type": "address"
        }
      ],
      "name": "isApprovedForAll",
      "outputs": [
        {
          "internalType": "bool",
          "name": "",
          "type": "bool"
        }
      ],
      "stateMutability": "view",
      "type": "function"
    },
    {
      "inputs": [],
      "name": "name",
      "outputs": [
        {
          "internalType": "string",
          "name": "",
          "type": "string"
        }
      ],
      "stateMutability": "view",
      "type": "function"
    },
    {
      "inputs": [],
      "name": "owner",
      "outputs": [
        {
          "internalType": "address",
          "name": "",
          "type": "address"
        }
      ],
      "stateMutability": "view",
      "type": "function"
    },
    {
      "inputs": [
        {
          "internalType": "uint256",
          "name": "tokenId",
          "type": "uint256"
        }
      ],
      "name": "ownerOf",
      "outputs": [
        {
          "internalType": "address",
          "name": "",
          "type": "address"
        }
      ],
      "stateMutability": "view",
      "type": "function"
    },
    {
      "inputs": [],
      "name": "renounceOwnership",
      "outputs": [],
      "stateMutability": "nonpayable",
      "type": "function"
    },
    {
      "inputs": [
        {
          "internalType": "address",
          "name": "to",
          "type": "address"
        },
        {
          "internalType": "string",
          "name": "uri",
          "type": "string"
        }
      ],
      "name": "safeMint",
      "outputs": [],
      "stateMutability": "nonpayable",
      "type": "function"
    },
    {
      "inputs": [
        {
          "internalType": "address",
          "name": "from",
          "type": "address"
        },
        {
          "internalType": "address",
          "name": "to",
          "type": "address"
        },
        {
          "internalType": "uint256",
          "name": "tokenId",
          "type": "uint256"
        }
      ],
      "name": "safeTransferFrom",
      "outputs": [],
      "stateMutability": "nonpayable",
      "type": "function"
    },
    {
      "inputs": [
        {
          "internalType": "address",
          "name": "from",
          "type": "address"
        },
        {
          "internalType": "address",
          "name": "to",
          "type": "address"
        },
        {
          "internalType": "uint256",
          "name": "tokenId",
          "type": "uint256"
        },
        {
          "internalType": "bytes",
          "name": "data",
          "type": "bytes"
        }
      ],
      "name": "safeTransferFrom",
      "outputs": [],
      "stateMutability": "nonpayable",
      "type": "function"
    },
    {
      "inputs": [
        {
          "internalType": "address",
          "name": "operator",
          "type": "address"
        },
        {
          "internalType": "bool",
          "name": "approved",
          "type": "bool"
        }
      ],
      "name": "setApprovalForAll",
      "outputs": [],
      "stateMutability": "nonpayable",
      "type": "function"
    },
    {
      "inputs": [
        {
          "internalType": "bytes4",
          "name": "interfaceId",
          "type": "bytes4"
        }
      ],
      "name": "supportsInterface",
      "outputs": [
        {
          "internalType": "bool",
          "name": "",
          "type": "bool"
        }
      ],
      "stateMutability": "view",
      "type": "function"
    },
    {
      "inputs": [],
      "name": "symbol",
      "outputs": [
        {
          "internalType": "string",
          "name": "",
          "type": "string"
        }
      ],
      "stateMutability": "view",
      "type": "function"
    },
    {
      "inputs": [
        {
          "internalType": "uint256",
          "name": "tokenId",
          "type": "uint256"
        }
      ],
      "name": "tokenURI",
      "outputs": [
        {
          "internalType": "string",
          "name": "",
          "type": "string"
        }
      ],
      "stateMutability": "view",
      "type": "function"
    },
    {
      "inputs": [
        {
          "internalType": "address",
          "name": "owner",
          "type": "address"
        }
      ],
      "name": "tokensOfOwner",
      "outputs": [
        {
          "internalType": "uint256[]",
          "name": "",
          "type": "uint256[]"
        }
      ],
      "stateMutability": "view",
      "type": "function"
    },
    {
      "inputs": [],
      "name": "totalSupply",
      "outputs": [
        {
          "internalType": "uint256",
          "name": "",
          "type": "uint256"
        }
      ],
      "stateMutability": "view",
      "type": "function"
    },
    {
      "inputs": [
        {
          "internalType": "address",
          "name": "from",
          "type": "address"
        },
        {
          "internalType": "address",
          "name": "to",
          "type": "address"
        },
        {
          "internalType": "uint256",
          "name": "tokenId",
          "type": "uint256"
        }
      ],
      "name": "transferFrom",
      "outputs": [],
      "stateMutability": "nonpayable",
      "type": "function"
    },
    {
      "inputs": [
        {
          "internalType": "address",
          "name": "newOwner",
          "type": "address"
        }
      ],
      "name": "transferOwnership",
      "outputs": [],
      "stateMutability": "nonpayable",
      "type": "function"
    }
  ],
  "bytecode": "0x60806040523480156200001157600080fd5b506040516200199b3803806200199b83398101604081905262000034916200012b565b806040518060400160405280600981526020016814d958dc995d13919560ba1b815250604051806040016040528060048152602001631cd3919560e21b815250816000908162000085919062000202565b50600162000094828262000202565b5050506001600160a01b038116620000c657604051631e4fbdf760e01b81526000600482015260240160405180910390fd5b620000d181620000d9565b5050620002ce565b600780546001600160a01b038381166001600160a01b0319831681179093556040519116919082907f8be0079c531659141344cd1fd0a4f28419497f9722a3daafe3b4186f6b6457e090600090a35050565b6000602082840312156200013e57600080fd5b81516001600160a01b03811681146200015657600080fd5b9392505050565b634e487b7160e01b600052604160045260246000fd5b600181811c908216806200018857607f821691505b602082108103620001a957634e487b7160e01b600052602260045260246000fd5b50919050565b601f821115620001fd57600081815260208120601f850160051c81016020861015620001d85750805b601f850160051c820191505b81811015620001f957828155600101620001e4565b5050505b505050565b81516001600160401b038111156200021e576200021e6200015d565b62000236816200022f845462000173565b84620001af565b602080601f8311600181146200026e5760008415620002555750858301515b600019600386901b1c1916600185901b178555620001f9565b600085815260208120601f198616915b828110156200029f578886015182559484019460019091019084016200027e565b5085821015620002be5787850151600019600388901b60f8161c191681555b5050505050600190811b01905550565b6116bd80620002de6000396000f3fe608060405234801561001057600080fd5b50600436106101215760003560e01c8063715018a6116100ad578063b88d4fde11610071578063b88d4fde14610255578063c87b56dd14610268578063d204c45e1461027b578063e985e9c51461028e578063f2fde38b146102a157600080fd5b8063715018a6146102015780638462151c146102095780638da5cb5b1461022957806395d89b411461023a578063a22cb4651461024257600080fd5b806318160ddd116100f457806318160ddd146101a357806323b872dd146101b557806342842e0e146101c85780636352211e146101db57806370a08231146101ee57600080fd5b806301ffc9a71461012657806306fdde031461014e578063081812fc14610163578063095ea7b31461018e575b600080fd5b610139610134366004611104565b6102b4565b60405190151581526020015b60405180910390f35b6101566102c5565b6040516101459190611171565b610176610171366004611184565b610357565b6040516001600160a01b039091168152602001610145565b6101a161019c3660046111b2565b610380565b005b6008545b604051908152602001610145565b6101a16101c33660046111de565b61038f565b6101a16101d63660046111de565b61041f565b6101766101e9366004611184565b61043f565b6101a76101fc36600461121f565b61044a565b6101a1610492565b61021c61021736600461121f565b6104a6565b604051610145919061123c565b6007546001600160a01b0316610176565b61015661067c565b6101a1610250366004611280565b61068b565b6101a161026336600461134a565b610696565b610156610276366004611184565b6106ad565b6101a16102893660046113ca565b6106b8565b61013961029c36600461142e565b6106e3565b6101a16102af36600461121f565b610711565b60006102bf8261074f565b92915050565b6060600080546102d49061145c565b80601f01602080910402602001604051908101604052809291908181526020018280546103009061145c565b801561034d5780601f106103225761010080835404028352916020019161034d565b820191906000526020600020905b81548152906001019060200180831161033057829003601f168201915b5050505050905090565b600061036282610774565b506000828152600460205260409020546001600160a01b03166102bf565b61038b8282336107ad565b5050565b6001600160a01b0382166103be57604051633250574960e11b8152600060048201526024015b60405180910390fd5b60006103cb8383336107ba565b9050836001600160a01b0316816001600160a01b031614610419576040516364283d7b60e01b81526001600160a01b03808616600483015260248201849052821660448201526064016103b5565b50505050565b61043a83838360405180602001604052806000815250610696565b505050565b60006102bf82610774565b60006001600160a01b038216610476576040516322718ad960e21b8152600060048201526024016103b5565b506001600160a01b031660009081526003602052604090205490565b61049a6108b3565b6104a460006108e0565b565b606060006104b38361044a565b905060008167ffffffffffffffff8111156104d0576104d06112be565b6040519080825280602002602001820160405280156104f9578160200160208202803683370190505b5090508160000361050b579392505050565b6000805b6008548110156105d6576040516331a9108f60e11b8152600481018290523090636352211e90602401602060405180830381865afa925050508015610571575060408051601f3d908101601f1916820190925261056e91810190611496565b60015b156105c45750856001600160a01b031661058a8261043f565b6001600160a01b0316036105c457808383815181106105ab576105ab6114b3565b6020908102919091010152816105c0816114c9565b9250505b806105ce816114c9565b91505061050f565b5060008167ffffffffffffffff8111156105f2576105f26112be565b60405190808252806020026020018201604052801561061b578160200160208202803683370190505b50905060005b828110156106725783818151811061063b5761063b6114b3565b6020026020010151828281518110610655576106556114b3565b60209081029190910101528061066a816114c9565b915050610621565b5095945050505050565b6060600180546102d49061145c565b61038b338383610932565b6106a184848461038f565b610419848484846109d1565b60606102bf82610afa565b60088054600091826106c9836114c9565b9190505590506106d98382610c0b565b61043a8183610c25565b6001600160a01b03918216600090815260056020908152604080832093909416825291909152205460ff1690565b6107196108b3565b6001600160a01b03811661074357604051631e4fbdf760e01b8152600060048201526024016103b5565b61074c816108e0565b50565b60006001600160e01b03198216632483248360e11b14806102bf57506102bf82610c75565b6000818152600260205260408120546001600160a01b0316806102bf57604051637e27328960e01b8152600481018490526024016103b5565b61043a8383836001610cc5565b6000828152600260205260408120546001600160a01b03908116908316156107e7576107e7818486610dcb565b6001600160a01b0381161561082557610804600085600080610cc5565b6001600160a01b038116600090815260036020526040902080546000190190555b6001600160a01b03851615610854576001600160a01b0385166000908152600360205260409020805460010190555b60008481526002602052604080822080546001600160a01b0319166001600160a01b0389811691821790925591518793918516917fddf252ad1be2c89b69c2b068fc378daa952ba7f163c4a11628f55a4df523b3ef91a4949350505050565b6007546001600160a01b031633146104a45760405163118cdaa760e01b81523360048201526024016103b5565b600780546001600160a01b038381166001600160a01b0319831681179093556040519116919082907f8be0079c531659141344cd1fd0a4f28419497f9722a3daafe3b4186f6b6457e090600090a35050565b6001600160a01b03821661096457604051630b61174360e31b81526001600160a01b03831660048201526024016103b5565b6001600160a01b03838116600081815260056020908152604080832094871680845294825291829020805460ff191686151590811790915591519182527f17307eab39ab6107e8899845ad3d59bd9653f200f220920489ca2b5937696c31910160405180910390a3505050565b6001600160a01b0383163b1561041957604051630a85bd0160e11b81526001600160a01b0384169063150b7a0290610a139033908890879087906004016114f0565b6020604051808303816000875af1925050508015610a4e575060408051601f3d908101601f19168201909252610a4b9181019061152d565b60015b610ab7573d808015610a7c576040519150601f19603f3d011682016040523d82523d6000602084013e610a81565b606091505b508051600003610aaf57604051633250574960e11b81526001600160a01b03851660048201526024016103b5565b805181602001fd5b6001600160e01b03198116630a85bd0160e11b14610af357604051633250574960e11b81526001600160a01b03851660048201526024016103b5565b5050505050565b6060610b0582610774565b5060008281526006602052604081208054610b1f9061145c565b80601f0160208091040260200160405190810160405280929190818152602001828054610b4b9061145c565b8015610b985780601f10610b6d57610100808354040283529160200191610b98565b820191906000526020600020905b815481529060010190602001808311610b7b57829003601f168201915b505050505090506000610bb660408051602081019091526000815290565b90508051600003610bc8575092915050565b815115610bfa578082604051602001610be292919061154a565b60405160208183030381529060405292505050919050565b610c0384610e2f565b949350505050565b61038b828260405180602001604052806000815250610ea4565b6000828152600660205260409020610c3d82826115c7565b506040518281527ff8e1a15aba9398e019f0b49df1a4fde98ee17ae345cb5f6b5e2c27f5033e8ce79060200160405180910390a15050565b60006001600160e01b031982166380ac58cd60e01b1480610ca657506001600160e01b03198216635b5e139f60e01b145b806102bf57506301ffc9a760e01b6001600160e01b03198316146102bf565b8080610cd957506001600160a01b03821615155b15610d9b576000610ce984610774565b90506001600160a01b03831615801590610d155750826001600160a01b0316816001600160a01b031614155b8015610d285750610d2681846106e3565b155b15610d515760405163a9fbf51f60e01b81526001600160a01b03841660048201526024016103b5565b8115610d995783856001600160a01b0316826001600160a01b03167f8c5be1e5ebec7d5bd14f71427d1e84f3dd0314c0f7b2291e5b200ac8c7c3b92560405160405180910390a45b505b5050600090815260046020526040902080546001600160a01b0319166001600160a01b0392909216919091179055565b610dd6838383610ebb565b61043a576001600160a01b038316610e0457604051637e27328960e01b8152600481018290526024016103b5565b60405163177e802f60e01b81526001600160a01b0383166004820152602481018290526044016103b5565b6060610e3a82610774565b506000610e5260408051602081019091526000815290565b90506000815111610e725760405180602001604052806000815250610e9d565b80610e7c84610f1e565b604051602001610e8d92919061154a565b6040516020818303038152906040525b9392505050565b610eae8383610fb1565b61043a60008484846109d1565b60006001600160a01b03831615801590610c035750826001600160a01b0316846001600160a01b03161480610ef55750610ef584846106e3565b80610c035750506000908152600460205260409020546001600160a01b03908116911614919050565b60606000610f2b83611016565b600101905060008167ffffffffffffffff811115610f4b57610f4b6112be565b6040519080825280601f01601f191660200182016040528015610f75576020820181803683370190505b5090508181016020015b600019016f181899199a1a9b1b9c1cb0b131b232b360811b600a86061a8153600a8504945084610f7f57509392505050565b6001600160a01b038216610fdb57604051633250574960e11b8152600060048201526024016103b5565b6000610fe9838360006107ba565b90506001600160a01b0381161561043a576040516339e3563760e11b8152600060048201526024016103b5565b60008072184f03e93ff9f4daa797ed6e38ed64bf6a1f0160401b83106110555772184f03e93ff9f4daa797ed6e38ed64bf6a1f0160401b830492506040015b6d04ee2d6d415b85acef81000000008310611081576d04ee2d6d415b85acef8100000000830492506020015b662386f26fc10000831061109f57662386f26fc10000830492506010015b6305f5e10083106110b7576305f5e100830492506008015b61271083106110cb57612710830492506004015b606483106110dd576064830492506002015b600a83106102bf5760010192915050565b6001600160e01b03198116811461074c57600080fd5b60006020828403121561111657600080fd5b8135610e9d816110ee565b60005b8381101561113c578181015183820152602001611124565b50506000910152565b6000815180845261115d816020860160208601611121565b601f01601f19169290920160200192915050565b602081526000610e9d6020830184611145565b60006020828403121561119657600080fd5b5035919050565b6001600160a01b038116811461074c57600080fd5b600080604083850312156111c557600080fd5b82356111d08161119d565b946020939093013593505050565b6000806000606084860312156111f357600080fd5b83356111fe8161119d565b9250602084013561120e8161119d565b929592945050506040919091013590565b60006020828403121561123157600080fd5b8135610e9d8161119d565b6020808252825182820181905260009190848201906040850190845b8181101561127457835183529284019291840191600101611258565b50909695505050505050565b6000806040838503121561129357600080fd5b823561129e8161119d565b9150602083013580151581146112b357600080fd5b809150509250929050565b634e487b7160e01b600052604160045260246000fd5b600067ffffffffffffffff808411156112ef576112ef6112be565b604051601f8501601f19908116603f01168101908282118183101715611317576113176112be565b8160405280935085815286868601111561133057600080fd5b858560208301376000602087830101525050509392505050565b6000806000806080858703121561136057600080fd5b843561136b8161119d565b9350602085013561137b8161119d565b925060408501359150606085013567ffffffffffffffff81111561139e57600080fd5b8501601f810187136113af57600080fd5b6113be878235602084016112d4565b91505092959194509250565b600080604083850312156113dd57600080fd5b82356113e88161119d565b9150602083013567ffffffffffffffff81111561140457600080fd5b8301601f8101851361141557600080fd5b611424858235602084016112d4565b9150509250929050565b6000806040838503121561144157600080fd5b823561144c8161119d565b915060208301356112b38161119d565b600181811c9082168061147057607f821691505b60208210810361149057634e487b7160e01b600052602260045260246000fd5b50919050565b6000602082840312156114a857600080fd5b8151610e9d8161119d565b634e487b7160e01b600052603260045260246000fd5b6000600182016114e957634e487b7160e01b600052601160045260246000fd5b5060010190565b6001600160a01b038581168252841660208201526040810183905260806060820181905260009061152390830184611145565b9695505050505050565b60006020828403121561153f57600080fd5b8151610e9d816110ee565b6000835161155c818460208801611121565b835190830190611570818360208801611121565b01949350505050565b601f82111561043a57600081815260208120601f850160051c810160208610156115a05750805b601f850160051c820191505b818110156115bf578281556001016115ac565b505050505050565b815167ffffffffffffffff8111156115e1576115e16112be565b6115f5816115ef845461145c565b84611579565b602080601f83116001811461162a57600084156116125750858301515b600019600386901b1c1916600185901b1785556115bf565b600085815260208120601f198616915b828110156116595788860151825594840194600190910190840161163a565b50858210156116775787850151600019600388901b60f8161c191681555b5050505050600190811b0190555056fea26469706673582212203053f814b09ab0b953ff04aab945c51b73518396f6edf97886deb2e2c061d8e864736f6c63430008140033",
  "linkReferences": {},
  "deployedLinkReferences": {}
}